{
  "contractName": "SupplyChain",
  "abi": [
    {
      "inputs": [],
      "stateMutability": "nonpayable",
      "type": "constructor"
    },
    {
      "anonymous": false,
      "inputs": [
        {
          "indexed": false,
          "internalType": "uint256",
          "name": "orderId",
          "type": "uint256"
        },
        {
          "indexed": false,
          "internalType": "uint256",
          "name": "deliveryDate",
          "type": "uint256"
        },
        {
          "indexed": false,
          "internalType": "string",
          "name": "otherData",
          "type": "string"
        }
      ],
      "name": "InvoiceSent",
      "type": "event"
    },
    {
      "anonymous": false,
      "inputs": [
        {
          "indexed": false,
          "internalType": "uint256",
          "name": "orderId",
          "type": "uint256"
        },
        {
          "indexed": false,
          "internalType": "string",
          "name": "reason",
          "type": "string"
        }
      ],
      "name": "OrderCancelled",
      "type": "event"
    },
    {
      "anonymous": false,
      "inputs": [
        {
          "indexed": false,
          "internalType": "uint256",
          "name": "orderId",
          "type": "uint256"
        },
        {
          "indexed": true,
          "internalType": "address",
          "name": "retailer",
          "type": "address"
        },
        {
          "indexed": false,
          "internalType": "string",
          "name": "product",
          "type": "string"
        },
        {
          "indexed": false,
          "internalType": "uint256",
          "name": "quantity",
          "type": "uint256"
        }
      ],
      "name": "OrderCreated",
      "type": "event"
    },
    {
      "anonymous": false,
      "inputs": [
        {
          "indexed": false,
          "internalType": "uint256",
          "name": "orderId",
          "type": "uint256"
        }
      ],
      "name": "OrderDelivered",
      "type": "event"
    },
    {
      "anonymous": false,
      "inputs": [
        {
          "indexed": false,
          "internalType": "uint256",
          "name": "orderId",
          "type": "uint256"
        },
        {
          "indexed": false,
          "internalType": "address",
          "name": "to",
          "type": "address"
        },
        {
          "indexed": false,
          "internalType": "uint256",
          "name": "amount",
          "type": "uint256"
        }
      ],
      "name": "PaymentReleased",
      "type": "event"
    },
    {
      "anonymous": false,
      "inputs": [
        {
          "indexed": false,
          "internalType": "uint256",
          "name": "orderId",
          "type": "uint256"
        },
        {
          "indexed": false,
          "internalType": "uint256",
          "name": "orderPrice",
          "type": "uint256"
        },
        {
          "indexed": false,
          "internalType": "uint256",
          "name": "shipmentPrice",
          "type": "uint256"
        }
      ],
      "name": "PriceSent",
      "type": "event"
    },
    {
      "inputs": [],
      "name": "manufacturer",
      "outputs": [
        {
          "internalType": "address",
          "name": "",
          "type": "address"
        }
      ],
      "stateMutability": "view",
      "type": "function",
      "constant": true
    },
    {
      "inputs": [],
      "name": "orderCount",
      "outputs": [
        {
          "internalType": "uint256",
          "name": "",
          "type": "uint256"
        }
      ],
      "stateMutability": "view",
      "type": "function",
      "constant": true
    },
    {
      "inputs": [
        {
          "internalType": "uint256",
          "name": "",
          "type": "uint256"
        }
      ],
      "name": "orders",
      "outputs": [
        {
          "internalType": "address",
          "name": "retailer",
          "type": "address"
        },
        {
          "internalType": "address",
          "name": "courier",
          "type": "address"
        },
        {
          "internalType": "string",
          "name": "product",
          "type": "string"
        },
        {
          "internalType": "uint256",
          "name": "quantity",
          "type": "uint256"
        },
        {
          "internalType": "uint256",
          "name": "orderPrice",
          "type": "uint256"
        },
        {
          "internalType": "uint256",
          "name": "shipmentPrice",
          "type": "uint256"
        },
        {
          "internalType": "uint256",
          "name": "grandTotal",
          "type": "uint256"
        },
        {
          "internalType": "uint256",
          "name": "deliveryDate",
          "type": "uint256"
        },
        {
          "internalType": "string",
          "name": "otherData",
          "type": "string"
        },
        {
          "internalType": "enum SupplyChain.OrderStatus",
          "name": "status",
          "type": "uint8"
        }
      ],
      "stateMutability": "view",
      "type": "function",
      "constant": true
    },
    {
      "inputs": [
        {
          "internalType": "address",
          "name": "retailer",
          "type": "address"
        },
        {
          "internalType": "string",
          "name": "product",
          "type": "string"
        },
        {
          "internalType": "uint256",
          "name": "quantity",
          "type": "uint256"
        }
      ],
      "name": "createOrder",
      "outputs": [],
      "stateMutability": "nonpayable",
      "type": "function"
    },
    {
      "inputs": [
        {
          "internalType": "uint256",
          "name": "orderId",
          "type": "uint256"
        },
        {
          "internalType": "uint256",
          "name": "_orderPrice",
          "type": "uint256"
        },
        {
          "internalType": "uint256",
          "name": "_shipmentPrice",
          "type": "uint256"
        },
        {
          "internalType": "uint256",
          "name": "_deliveryDate",
          "type": "uint256"
        },
        {
          "internalType": "address",
          "name": "_courier",
          "type": "address"
        }
      ],
      "name": "setPrices",
      "outputs": [],
      "stateMutability": "nonpayable",
      "type": "function"
    },
    {
      "inputs": [
        {
          "internalType": "uint256",
          "name": "orderId",
          "type": "uint256"
        }
      ],
      "name": "pay",
      "outputs": [],
      "stateMutability": "payable",
      "type": "function",
      "payable": true
    },
    {
      "inputs": [
        {
          "internalType": "uint256",
          "name": "orderId",
          "type": "uint256"
        },
        {
          "internalType": "uint256",
          "name": "deliveryDate",
          "type": "uint256"
        },
        {
          "internalType": "string",
          "name": "otherData",
          "type": "string"
        }
      ],
      "name": "sendInvoice",
      "outputs": [],
      "stateMutability": "nonpayable",
      "type": "function"
    },
    {
      "inputs": [
        {
          "internalType": "uint256",
          "name": "orderId",
          "type": "uint256"
        }
      ],
      "name": "markDelivered",
      "outputs": [],
      "stateMutability": "nonpayable",
      "type": "function"
    },
    {
      "inputs": [
        {
          "internalType": "uint256",
          "name": "orderId",
          "type": "uint256"
        },
        {
          "internalType": "string",
          "name": "reason",
          "type": "string"
        }
      ],
      "name": "cancelOrder",
      "outputs": [],
      "stateMutability": "nonpayable",
      "type": "function"
    }
  ],
  "bytecode": "0x608060405234801561001057600080fd5b50336000806101000a81548173ffffffffffffffffffffffffffffffffffffffff021916908373ffffffffffffffffffffffffffffffffffffffff16021790555060006001819055506121b3806100686000396000f3fe6080604052600436106100865760003560e01c806384d3afe61161005957806384d3afe614610133578063a85c38ef1461015c578063ad7e2181146101a2578063c290d691146101cb578063eb826a5f146101e757610086565b80632453ffa81461008b5780633ded757e146100b657806353e1df56146100df5780637475428214610108575b600080fd5b34801561009757600080fd5b506100a0610210565b6040516100ad9190611317565b60405180910390f35b3480156100c257600080fd5b506100dd60048036038101906100d891906113d0565b610216565b005b3480156100eb57600080fd5b5061010660048036038101906101019190611591565b61047a565b005b34801561011457600080fd5b5061011d610611565b60405161012a919061160f565b60405180910390f35b34801561013f57600080fd5b5061015a6004803603810190610155919061162a565b610635565b005b34801561016857600080fd5b50610183600480360381019061017e9190611699565b610903565b6040516101999a999897969594939291906117bc565b60405180910390f35b3480156101ae57600080fd5b506101c960048036038101906101c49190611866565b610ab4565b005b6101e560048036038101906101e09190611699565b610d83565b005b3480156101f357600080fd5b5061020e60048036038101906102099190611699565b610f4d565b005b60015481565b60008054906101000a900473ffffffffffffffffffffffffffffffffffffffff1673ffffffffffffffffffffffffffffffffffffffff163373ffffffffffffffffffffffffffffffffffffffff16146102a4576040517f08c379a000000000000000000000000000000000000000000000000000000000815260040161029b9061190e565b60405180910390fd5b600160058111156102b8576102b7611745565b5b6002600087815260200190815260200160002060090160009054906101000a900460ff1660058111156102ee576102ed611745565b5b1461032e576040517f08c379a00000000000000000000000000000000000000000000000000000000081526004016103259061197a565b60405180910390fd5b836002600087815260200190815260200160002060040181905550826002600087815260200190815260200160002060050181905550806002600087815260200190815260200160002060010160006101000a81548173ffffffffffffffffffffffffffffffffffffffff021916908373ffffffffffffffffffffffffffffffffffffffff16021790555081600260008781526020019081526020016000206007018190555082846103e091906119c9565b6002600087815260200190815260200160002060060181905550600280600087815260200190815260200160002060090160006101000a81548160ff0219169083600581111561043357610432611745565b5b02179055507feb83729e41ad63eb748b67a6121afea612fb910dad4282ad987b4f31ba84f3ab85858560405161046b939291906119fd565b60405180910390a15050505050565b60008054906101000a900473ffffffffffffffffffffffffffffffffffffffff1673ffffffffffffffffffffffffffffffffffffffff163373ffffffffffffffffffffffffffffffffffffffff1614610508576040517f08c379a00000000000000000000000000000000000000000000000000000000081526004016104ff9061190e565b60405180910390fd5b6003600581111561051c5761051b611745565b5b6002600085815260200190815260200160002060090160009054906101000a900460ff16600581111561055257610551611745565b5b14610592576040517f08c379a000000000000000000000000000000000000000000000000000000000815260040161058990611a80565b60405180910390fd5b816002600085815260200190815260200160002060070181905550806002600085815260200190815260200160002060080190816105d09190611cac565b507f83b74f11f6aede4e5864667bcd849d099d132dc86f8dea06c2a2e3e2b62a371d83838360405161060493929190611d7e565b60405180910390a1505050565b60008054906101000a900473ffffffffffffffffffffffffffffffffffffffff1681565b60008054906101000a900473ffffffffffffffffffffffffffffffffffffffff1673ffffffffffffffffffffffffffffffffffffffff163373ffffffffffffffffffffffffffffffffffffffff16146106c3576040517f08c379a00000000000000000000000000000000000000000000000000000000081526004016106ba9061190e565b60405180910390fd5b600160008154809291906106d690611dbc565b91905055506040518061014001604052808473ffffffffffffffffffffffffffffffffffffffff168152602001600073ffffffffffffffffffffffffffffffffffffffff168152602001838152602001828152602001600081526020016000815260200160008152602001600081526020016040518060200160405280600081525081526020016001600581111561077157610770611745565b5b81525060026000600154815260200190815260200160002060008201518160000160006101000a81548173ffffffffffffffffffffffffffffffffffffffff021916908373ffffffffffffffffffffffffffffffffffffffff16021790555060208201518160010160006101000a81548173ffffffffffffffffffffffffffffffffffffffff021916908373ffffffffffffffffffffffffffffffffffffffff160217905550604082015181600201908161082c9190611cac565b50606082015181600301556080820151816004015560a0820151816005015560c0820151816006015560e082015181600701556101008201518160080190816108759190611cac565b506101208201518160090160006101000a81548160ff021916908360058111156108a2576108a1611745565b5b02179055509050508273ffffffffffffffffffffffffffffffffffffffff167feeb5d6b56077d478228f63f7be44598af0dd7dee9cc12fdad576aaa736fe4adb60015484846040516108f693929190611e04565b60405180910390a2505050565b60026020528060005260406000206000915090508060000160009054906101000a900473ffffffffffffffffffffffffffffffffffffffff16908060010160009054906101000a900473ffffffffffffffffffffffffffffffffffffffff169080600201805461097290611acf565b80601f016020809104026020016040519081016040528092919081815260200182805461099e90611acf565b80156109eb5780601f106109c0576101008083540402835291602001916109eb565b820191906000526020600020905b8154815290600101906020018083116109ce57829003601f168201915b505050505090806003015490806004015490806005015490806006015490806007015490806008018054610a1e90611acf565b80601f0160208091040260200160405190810160405280929190818152602001828054610a4a90611acf565b8015610a975780601f10610a6c57610100808354040283529160200191610a97565b820191906000526020600020905b815481529060010190602001808311610a7a57829003601f168201915b5050505050908060090160009054906101000a900460ff1690508a565b600060026000848152602001908152602001600020905060008054906101000a900473ffffffffffffffffffffffffffffffffffffffff1673ffffffffffffffffffffffffffffffffffffffff163373ffffffffffffffffffffffffffffffffffffffff161480610b7457508060000160009054906101000a900473ffffffffffffffffffffffffffffffffffffffff1673ffffffffffffffffffffffffffffffffffffffff163373ffffffffffffffffffffffffffffffffffffffff16145b610bb3576040517f08c379a0000000000000000000000000000000000000000000000000000000008152600401610baa90611eb4565b60405180910390fd5b60016005811115610bc757610bc6611745565b5b8160090160009054906101000a900460ff166005811115610beb57610bea611745565b5b1480610c2c575060026005811115610c0657610c05611745565b5b8160090160009054906101000a900460ff166005811115610c2a57610c29611745565b5b145b610c6b576040517f08c379a0000000000000000000000000000000000000000000000000000000008152600401610c6290611f46565b60405180910390fd5b60036005811115610c7f57610c7e611745565b5b8160090160009054906101000a900460ff166005811115610ca357610ca2611745565b5b03610d18578060000160009054906101000a900473ffffffffffffffffffffffffffffffffffffffff1673ffffffffffffffffffffffffffffffffffffffff166108fc82600601549081150290604051600060405180830381858888f19350505050158015610d16573d6000803e3d6000fd5b505b60058160090160006101000a81548160ff02191690836005811115610d4057610d3f611745565b5b02179055507f56d64c06f67a0a2c80b38a9cd2b031e911c22a2c176bea4219adc7f5e3366a928383604051610d76929190611f66565b60405180910390a1505050565b806002600082815260200190815260200160002060000160009054906101000a900473ffffffffffffffffffffffffffffffffffffffff1673ffffffffffffffffffffffffffffffffffffffff163373ffffffffffffffffffffffffffffffffffffffff1614610e28576040517f08c379a0000000000000000000000000000000000000000000000000000000008152600401610e1f90611fe2565b60405180910390fd5b60026005811115610e3c57610e3b611745565b5b6002600084815260200190815260200160002060090160009054906101000a900460ff166005811115610e7257610e71611745565b5b14610eb2576040517f08c379a0000000000000000000000000000000000000000000000000000000008152600401610ea99061204e565b60405180910390fd5b60026000838152602001908152602001600020600601543414610f0a576040517f08c379a0000000000000000000000000000000000000000000000000000000008152600401610f01906120ba565b60405180910390fd5b60036002600084815260200190815260200160002060090160006101000a81548160ff02191690836005811115610f4457610f43611745565b5b02179055505050565b806002600082815260200190815260200160002060010160009054906101000a900473ffffffffffffffffffffffffffffffffffffffff1673ffffffffffffffffffffffffffffffffffffffff163373ffffffffffffffffffffffffffffffffffffffff1614610ff2576040517f08c379a0000000000000000000000000000000000000000000000000000000008152600401610fe990612126565b60405180910390fd5b6003600581111561100657611005611745565b5b6002600084815260200190815260200160002060090160009054906101000a900460ff16600581111561103c5761103b611745565b5b1461107c576040517f08c379a000000000000000000000000000000000000000000000000000000000815260040161107390611a80565b60405180910390fd5b60046002600084815260200190815260200160002060090160006101000a81548160ff021916908360058111156110b6576110b5611745565b5b02179055507fe21fe02c1589242b30be2057f54fd54b7ddc463695d19ffdb54f9ebb0584f24a826040516110ea9190611317565b60405180910390a160008054906101000a900473ffffffffffffffffffffffffffffffffffffffff1673ffffffffffffffffffffffffffffffffffffffff166108fc60026000858152602001908152602001600020600401549081150290604051600060405180830381858888f1935050505015801561116e573d6000803e3d6000fd5b506002600083815260200190815260200160002060010160009054906101000a900473ffffffffffffffffffffffffffffffffffffffff1673ffffffffffffffffffffffffffffffffffffffff166108fc60026000858152602001908152602001600020600501549081150290604051600060405180830381858888f19350505050158015611201573d6000803e3d6000fd5b507f21d71db5be59bb9fa133895586b7404307dd33fb93b16db09dc6f1d9d7d231b08260008054906101000a900473ffffffffffffffffffffffffffffffffffffffff16600260008681526020019081526020016000206004015460405161126b93929190612146565b60405180910390a17f21d71db5be59bb9fa133895586b7404307dd33fb93b16db09dc6f1d9d7d231b0826002600085815260200190815260200160002060010160009054906101000a900473ffffffffffffffffffffffffffffffffffffffff1660026000868152602001908152602001600020600501546040516112f293929190612146565b60405180910390a15050565b6000819050919050565b611311816112fe565b82525050565b600060208201905061132c6000830184611308565b92915050565b6000604051905090565b600080fd5b600080fd5b61134f816112fe565b811461135a57600080fd5b50565b60008135905061136c81611346565b92915050565b600073ffffffffffffffffffffffffffffffffffffffff82169050919050565b600061139d82611372565b9050919050565b6113ad81611392565b81146113b857600080fd5b50565b6000813590506113ca816113a4565b92915050565b600080600080600060a086880312156113ec576113eb61133c565b5b60006113fa8882890161135d565b955050602061140b8882890161135d565b945050604061141c8882890161135d565b935050606061142d8882890161135d565b925050608061143e888289016113bb565b9150509295509295909350565b600080fd5b600080fd5b6000601f19601f8301169050919050565b7f4e487b7100000000000000000000000000000000000000000000000000000000600052604160045260246000fd5b61149e82611455565b810181811067ffffffffffffffff821117156114bd576114bc611466565b5b80604052505050565b60006114d0611332565b90506114dc8282611495565b919050565b600067ffffffffffffffff8211156114fc576114fb611466565b5b61150582611455565b9050602081019050919050565b82818337600083830152505050565b600061153461152f846114e1565b6114c6565b9050828152602081018484840111156115505761154f611450565b5b61155b848285611512565b509392505050565b600082601f8301126115785761157761144b565b5b8135611588848260208601611521565b91505092915050565b6000806000606084860312156115aa576115a961133c565b5b60006115b88682870161135d565b93505060206115c98682870161135d565b925050604084013567ffffffffffffffff8111156115ea576115e9611341565b5b6115f686828701611563565b9150509250925092565b61160981611392565b82525050565b60006020820190506116246000830184611600565b92915050565b6000806000606084860312156116435761164261133c565b5b6000611651868287016113bb565b935050602084013567ffffffffffffffff81111561167257611671611341565b5b61167e86828701611563565b925050604061168f8682870161135d565b9150509250925092565b6000602082840312156116af576116ae61133c565b5b60006116bd8482850161135d565b91505092915050565b600081519050919050565b600082825260208201905092915050565b60005b838110156117005780820151818401526020810190506116e5565b60008484015250505050565b6000611717826116c6565b61172181856116d1565b93506117318185602086016116e2565b61173a81611455565b840191505092915050565b7f4e487b7100000000000000000000000000000000000000000000000000000000600052602160045260246000fd5b6006811061178557611784611745565b5b50565b600081905061179682611774565b919050565b60006117a682611788565b9050919050565b6117b68161179b565b82525050565b6000610140820190506117d2600083018d611600565b6117df602083018c611600565b81810360408301526117f1818b61170c565b9050611800606083018a611308565b61180d6080830189611308565b61181a60a0830188611308565b61182760c0830187611308565b61183460e0830186611308565b818103610100830152611847818561170c565b90506118576101208301846117ad565b9b9a5050505050505050505050565b6000806040838503121561187d5761187c61133c565b5b600061188b8582860161135d565b925050602083013567ffffffffffffffff8111156118ac576118ab611341565b5b6118b885828601611563565b9150509250929050565b7f4e6f7420746865204d616e756661637475726572000000000000000000000000600082015250565b60006118f86014836116d1565b9150611903826118c2565b602082019050919050565b60006020820190508181036000830152611927816118eb565b9050919050565b7f4f72646572206e6f7420696e204f726465726564207374617475730000000000600082015250565b6000611964601b836116d1565b915061196f8261192e565b602082019050919050565b6000602082019050818103600083015261199381611957565b9050919050565b7f4e487b7100000000000000000000000000000000000000000000000000000000600052601160045260246000fd5b60006119d4826112fe565b91506119df836112fe565b92508282019050808211156119f7576119f661199a565b5b92915050565b6000606082019050611a126000830186611308565b611a1f6020830185611308565b611a2c6040830184611308565b949350505050565b7f5061796d656e74206e6f7420636f6d706c657465640000000000000000000000600082015250565b6000611a6a6015836116d1565b9150611a7582611a34565b602082019050919050565b60006020820190508181036000830152611a9981611a5d565b9050919050565b7f4e487b7100000000000000000000000000000000000000000000000000000000600052602260045260246000fd5b60006002820490506001821680611ae757607f821691505b602082108103611afa57611af9611aa0565b5b50919050565b60008190508160005260206000209050919050565b60006020601f8301049050919050565b600082821b905092915050565b600060088302611b627fffffffffffffffffffffffffffffffffffffffffffffffffffffffffffffffff82611b25565b611b6c8683611b25565b95508019841693508086168417925050509392505050565b6000819050919050565b6000611ba9611ba4611b9f846112fe565b611b84565b6112fe565b9050919050565b6000819050919050565b611bc383611b8e565b611bd7611bcf82611bb0565b848454611b32565b825550505050565b600090565b611bec611bdf565b611bf7818484611bba565b505050565b5b81811015611c1b57611c10600082611be4565b600181019050611bfd565b5050565b601f821115611c6057611c3181611b00565b611c3a84611b15565b81016020851015611c49578190505b611c5d611c5585611b15565b830182611bfc565b50505b505050565b600082821c905092915050565b6000611c8360001984600802611c65565b1980831691505092915050565b6000611c9c8383611c72565b9150826002028217905092915050565b611cb5826116c6565b67ffffffffffffffff811115611cce57611ccd611466565b5b611cd88254611acf565b611ce3828285611c1f565b600060209050601f831160018114611d165760008415611d04578287015190505b611d0e8582611c90565b865550611d76565b601f198416611d2486611b00565b60005b82811015611d4c57848901518255600182019150602085019450602081019050611d27565b86831015611d695784890151611d65601f891682611c72565b8355505b6001600288020188555050505b505050505050565b6000606082019050611d936000830186611308565b611da06020830185611308565b8181036040830152611db2818461170c565b9050949350505050565b6000611dc7826112fe565b91507fffffffffffffffffffffffffffffffffffffffffffffffffffffffffffffffff8203611df957611df861199a565b5b600182019050919050565b6000606082019050611e196000830186611308565b8181036020830152611e2b818561170c565b9050611e3a6040830184611308565b949350505050565b7f4f6e6c79204d616e756661637475726572206f722052657461696c657220636160008201527f6e2063616e63656c20746865206f726465720000000000000000000000000000602082015250565b6000611e9e6032836116d1565b9150611ea982611e42565b604082019050919050565b60006020820190508181036000830152611ecd81611e91565b9050919050565b7f4f726465722063616e6e6f742062652063616e63656c6c65642061742074686960008201527f7320737461676500000000000000000000000000000000000000000000000000602082015250565b6000611f306027836116d1565b9150611f3b82611ed4565b604082019050919050565b60006020820190508181036000830152611f5f81611f23565b9050919050565b6000604082019050611f7b6000830185611308565b8181036020830152611f8d818461170c565b90509392505050565b7f4e6f74207468652052657461696c657220666f722074686973204f7264657200600082015250565b6000611fcc601f836116d1565b9150611fd782611f96565b602082019050919050565b60006020820190508181036000830152611ffb81611fbf565b9050919050565b7f507269636573206e6f7420736574207965740000000000000000000000000000600082015250565b60006120386012836116d1565b915061204382612002565b602082019050919050565b600060208201905081810360008301526120678161202b565b9050919050565b7f496e636f7272656374207061796d656e7420616d6f756e740000000000000000600082015250565b60006120a46018836116d1565b91506120af8261206e565b602082019050919050565b600060208201905081810360008301526120d381612097565b9050919050565b7f4e6f742074686520436f75726965720000000000000000000000000000000000600082015250565b6000612110600f836116d1565b915061211b826120da565b602082019050919050565b6000602082019050818103600083015261213f81612103565b9050919050565b600060608201905061215b6000830186611308565b6121686020830185611600565b6121756040830184611308565b94935050505056fea2646970667358221220d1daecd676beff6c898d712f1cb60d1c37d557a3f7213e1d520ee7a54597b9fa64736f6c63430008130033",
  "immutableReferences": {},
  "source": "// SPDX-License-Identifier: MIT\npragma solidity ^0.8.19;\n\ncontract SupplyChain {\n    address public manufacturer;\n\n    struct Order {\n        address retailer;\n        address courier;\n        string product;\n        uint256 quantity;\n        uint256 orderPrice;\n        uint256 shipmentPrice;\n        uint256 grandTotal;\n        uint256 deliveryDate;\n        string otherData;\n        OrderStatus status;\n    }\n\n    enum OrderStatus { None, Ordered, Priced, Paid, Delivered, Cancelled }\n\n    uint256 public orderCount;\n    mapping(uint256 => Order) public orders;\n\n    event OrderCreated(uint256 orderId, address indexed retailer, string product, uint256 quantity);\n    event PriceSent(uint256 orderId, uint256 orderPrice, uint256 shipmentPrice);\n    event InvoiceSent(uint256 orderId, uint256 deliveryDate, string otherData);\n    event OrderDelivered(uint256 orderId);\n    event OrderCancelled(uint256 orderId, string reason);\n    event PaymentReleased(uint256 orderId, address to, uint256 amount);\n\n    constructor() {\n        manufacturer = msg.sender;\n        orderCount = 0;\n    }\n\n    modifier onlyManufacturer() {\n        require(msg.sender == manufacturer, \"Not the Manufacturer\");\n        _;\n    }\n\n    modifier onlyRetailer(uint256 orderId) {\n        require(msg.sender == orders[orderId].retailer, \"Not the Retailer for this Order\");\n        _;\n    }\n\n    modifier onlyCourier(uint256 orderId) {\n        require(msg.sender == orders[orderId].courier, \"Not the Courier\");\n        _;\n    }\n\n    function createOrder(address retailer, string memory product, uint256 quantity) public onlyManufacturer {\n        orderCount++;\n        orders[orderCount] = Order({\n            retailer: retailer,\n            courier: address(0),\n            product: product,\n            quantity: quantity,\n            orderPrice: 0,\n            shipmentPrice: 0,\n            grandTotal: 0,\n            deliveryDate: 0,\n            otherData: \"\",\n            status: OrderStatus.Ordered\n        });\n\n        emit OrderCreated(orderCount, retailer, product, quantity);\n    }\n\n    function setPrices(uint256 orderId, uint256 _orderPrice, uint256 _shipmentPrice, uint256 _deliveryDate, address _courier) public onlyManufacturer {\n        require(orders[orderId].status == OrderStatus.Ordered, \"Order not in Ordered status\");\n        orders[orderId].orderPrice = _orderPrice;\n        orders[orderId].shipmentPrice = _shipmentPrice;\n        orders[orderId].courier = _courier;\n        orders[orderId].deliveryDate = _deliveryDate;\n        orders[orderId].grandTotal = _orderPrice + _shipmentPrice;\n        orders[orderId].status = OrderStatus.Priced;\n\n        emit PriceSent(orderId, _orderPrice, _shipmentPrice);\n    }\n\n    function pay(uint256 orderId) public payable onlyRetailer(orderId) {\n        require(orders[orderId].status == OrderStatus.Priced, \"Prices not set yet\");\n        require(msg.value == orders[orderId].grandTotal, \"Incorrect payment amount\");\n        orders[orderId].status = OrderStatus.Paid;\n    }\n\n    function sendInvoice(uint256 orderId, uint256 deliveryDate, string memory otherData) public onlyManufacturer {\n        require(orders[orderId].status == OrderStatus.Paid, \"Payment not completed\");\n        orders[orderId].deliveryDate = deliveryDate;\n        orders[orderId].otherData = otherData;\n\n        emit InvoiceSent(orderId, deliveryDate, otherData);\n    }\n\n    function markDelivered(uint256 orderId) public onlyCourier(orderId) {\n        require(orders[orderId].status == OrderStatus.Paid, \"Payment not completed\");\n        orders[orderId].status = OrderStatus.Delivered;\n\n        emit OrderDelivered(orderId);\n\n        // Payout\n        payable(manufacturer).transfer(orders[orderId].orderPrice);\n        payable(orders[orderId].courier).transfer(orders[orderId].shipmentPrice);\n\n        emit PaymentReleased(orderId, manufacturer, orders[orderId].orderPrice);\n        emit PaymentReleased(orderId, orders[orderId].courier, orders[orderId].shipmentPrice);\n    }\n\n    function cancelOrder(uint256 orderId, string memory reason) public {\n        Order storage order = orders[orderId];\n        require(\n            msg.sender == manufacturer || msg.sender == order.retailer,\n            \"Only Manufacturer or Retailer can cancel the order\"\n        );\n        require(\n            order.status == OrderStatus.Ordered || order.status == OrderStatus.Priced,\n            \"Order cannot be cancelled at this stage\"\n        );\n\n        // If payment was made, refund the retailer\n        if (order.status == OrderStatus.Paid) {\n            payable(order.retailer).transfer(order.grandTotal);\n        }\n\n        order.status = OrderStatus.Cancelled;\n\n        emit OrderCancelled(orderId, reason);\n    }\n}\n",
  "sourcePath": "C:\\Programos\\smartContractBasic\\contracts\\SupplyChain.sol",
  "compiler": {
    "name": "solc",
    "version": "0.8.19+commit.7dd6d404.Emscripten.clang"
  },
  "schemaVersion": "3.4.16",
  "updatedAt": "2024-12-06T15:44:25.244Z",
  "networkType": "ethereum",
  "devdoc": {
    "kind": "dev",
    "methods": {},
    "version": 1
  },
  "userdoc": {
    "kind": "user",
    "methods": {},
    "version": 1
  }
}