{
  "contractName": "SupplyChain",
  "abi": [
    {
      "inputs": [],
      "stateMutability": "nonpayable",
      "type": "constructor"
    },
    {
      "anonymous": false,
      "inputs": [
        {
          "indexed": true,
          "internalType": "uint256",
          "name": "orderId",
          "type": "uint256"
        },
        {
          "indexed": false,
          "internalType": "uint256",
          "name": "deliveryDate",
          "type": "uint256"
        }
      ],
      "name": "InvoiceSent",
      "type": "event"
    },
    {
      "anonymous": false,
      "inputs": [
        {
          "indexed": true,
          "internalType": "uint256",
          "name": "orderId",
          "type": "uint256"
        },
        {
          "indexed": false,
          "internalType": "string",
          "name": "reason",
          "type": "string"
        }
      ],
      "name": "OrderCancelled",
      "type": "event"
    },
    {
      "anonymous": false,
      "inputs": [
        {
          "indexed": true,
          "internalType": "uint256",
          "name": "orderId",
          "type": "uint256"
        },
        {
          "indexed": false,
          "internalType": "address",
          "name": "retailer",
          "type": "address"
        },
        {
          "indexed": false,
          "internalType": "string",
          "name": "product",
          "type": "string"
        },
        {
          "indexed": false,
          "internalType": "uint256",
          "name": "quantity",
          "type": "uint256"
        }
      ],
      "name": "OrderCreated",
      "type": "event"
    },
    {
      "anonymous": false,
      "inputs": [
        {
          "indexed": true,
          "internalType": "uint256",
          "name": "orderId",
          "type": "uint256"
        }
      ],
      "name": "OrderDelivered",
      "type": "event"
    },
    {
      "anonymous": false,
      "inputs": [
        {
          "indexed": true,
          "internalType": "uint256",
          "name": "orderId",
          "type": "uint256"
        }
      ],
      "name": "OrderPayed",
      "type": "event"
    },
    {
      "anonymous": false,
      "inputs": [
        {
          "indexed": true,
          "internalType": "uint256",
          "name": "orderId",
          "type": "uint256"
        },
        {
          "indexed": false,
          "internalType": "address",
          "name": "to",
          "type": "address"
        },
        {
          "indexed": false,
          "internalType": "uint256",
          "name": "amount",
          "type": "uint256"
        }
      ],
      "name": "PaymentReleased",
      "type": "event"
    },
    {
      "anonymous": false,
      "inputs": [
        {
          "indexed": true,
          "internalType": "uint256",
          "name": "orderId",
          "type": "uint256"
        },
        {
          "indexed": false,
          "internalType": "uint256",
          "name": "orderPrice",
          "type": "uint256"
        },
        {
          "indexed": false,
          "internalType": "uint256",
          "name": "shipmentPrice",
          "type": "uint256"
        }
      ],
      "name": "PriceSent",
      "type": "event"
    },
    {
      "inputs": [],
      "name": "manufacturer",
      "outputs": [
        {
          "internalType": "address",
          "name": "",
          "type": "address"
        }
      ],
      "stateMutability": "view",
      "type": "function",
      "constant": true
    },
    {
      "inputs": [],
      "name": "orderCount",
      "outputs": [
        {
          "internalType": "uint256",
          "name": "",
          "type": "uint256"
        }
      ],
      "stateMutability": "view",
      "type": "function",
      "constant": true
    },
    {
      "inputs": [
        {
          "internalType": "uint256",
          "name": "",
          "type": "uint256"
        }
      ],
      "name": "orders",
      "outputs": [
        {
          "internalType": "address",
          "name": "retailer",
          "type": "address"
        },
        {
          "internalType": "address",
          "name": "courier",
          "type": "address"
        },
        {
          "internalType": "string",
          "name": "product",
          "type": "string"
        },
        {
          "internalType": "uint256",
          "name": "quantity",
          "type": "uint256"
        },
        {
          "internalType": "uint256",
          "name": "orderPrice",
          "type": "uint256"
        },
        {
          "internalType": "uint256",
          "name": "shipmentPrice",
          "type": "uint256"
        },
        {
          "internalType": "uint256",
          "name": "grandTotal",
          "type": "uint256"
        },
        {
          "internalType": "uint256",
          "name": "deliveryDate",
          "type": "uint256"
        },
        {
          "internalType": "enum SupplyChain.OrderStatus",
          "name": "status",
          "type": "uint8"
        }
      ],
      "stateMutability": "view",
      "type": "function",
      "constant": true
    },
    {
      "inputs": [
        {
          "internalType": "address",
          "name": "retailer",
          "type": "address"
        },
        {
          "internalType": "string",
          "name": "product",
          "type": "string"
        },
        {
          "internalType": "uint256",
          "name": "quantity",
          "type": "uint256"
        }
      ],
      "name": "createOrder",
      "outputs": [],
      "stateMutability": "nonpayable",
      "type": "function"
    },
    {
      "inputs": [
        {
          "internalType": "uint256",
          "name": "orderId",
          "type": "uint256"
        },
        {
          "internalType": "uint256",
          "name": "_orderPrice",
          "type": "uint256"
        },
        {
          "internalType": "uint256",
          "name": "_shipmentPrice",
          "type": "uint256"
        },
        {
          "internalType": "uint256",
          "name": "_deliveryDate",
          "type": "uint256"
        },
        {
          "internalType": "address",
          "name": "_courier",
          "type": "address"
        }
      ],
      "name": "setPrices",
      "outputs": [],
      "stateMutability": "nonpayable",
      "type": "function"
    },
    {
      "inputs": [
        {
          "internalType": "uint256",
          "name": "orderId",
          "type": "uint256"
        }
      ],
      "name": "pay",
      "outputs": [],
      "stateMutability": "payable",
      "type": "function",
      "payable": true
    },
    {
      "inputs": [
        {
          "internalType": "uint256",
          "name": "orderId",
          "type": "uint256"
        },
        {
          "internalType": "uint256",
          "name": "deliveryDate",
          "type": "uint256"
        }
      ],
      "name": "sendInvoice",
      "outputs": [],
      "stateMutability": "nonpayable",
      "type": "function"
    },
    {
      "inputs": [
        {
          "internalType": "uint256",
          "name": "orderId",
          "type": "uint256"
        }
      ],
      "name": "markDelivered",
      "outputs": [],
      "stateMutability": "nonpayable",
      "type": "function"
    },
    {
      "inputs": [
        {
          "internalType": "uint256",
          "name": "orderId",
          "type": "uint256"
        },
        {
          "internalType": "string",
          "name": "reason",
          "type": "string"
        }
      ],
      "name": "cancelOrder",
      "outputs": [],
      "stateMutability": "nonpayable",
      "type": "function"
    }
  ],
  "bytecode": "0x608060405234801561001057600080fd5b50336000806101000a81548173ffffffffffffffffffffffffffffffffffffffff021916908373ffffffffffffffffffffffffffffffffffffffff1602179055506000600181905550611fc0806100686000396000f3fe6080604052600436106100865760003560e01c806384d3afe61161005957806384d3afe614610133578063a85c38ef1461015c578063ad7e2181146101a1578063c290d691146101ca578063eb826a5f146101e657610086565b80632453ffa81461008b5780633ded757e146100b65780636e0fa7be146100df5780637475428214610108575b600080fd5b34801561009757600080fd5b506100a061020f565b6040516100ad919061123d565b60405180910390f35b3480156100c257600080fd5b506100dd60048036038101906100d891906112f6565b610215565b005b3480156100eb57600080fd5b5061010660048036038101906101019190611371565b610478565b005b34801561011457600080fd5b5061011d6105e7565b60405161012a91906113c0565b60405180910390f35b34801561013f57600080fd5b5061015a60048036038101906101559190611521565b61060b565b005b34801561016857600080fd5b50610183600480360381019061017e9190611590565b610897565b604051610198999897969594939291906116b3565b60405180910390f35b3480156101ad57600080fd5b506101c860048036038101906101c39190611747565b6109ba565b005b6101e460048036038101906101df9190611590565b610c88565b005b3480156101f257600080fd5b5061020d60048036038101906102089190611590565b610e7f565b005b60015481565b60008054906101000a900473ffffffffffffffffffffffffffffffffffffffff1673ffffffffffffffffffffffffffffffffffffffff163373ffffffffffffffffffffffffffffffffffffffff16146102a3576040517f08c379a000000000000000000000000000000000000000000000000000000000815260040161029a906117ef565b60405180910390fd5b600160058111156102b7576102b661163c565b5b6002600087815260200190815260200160002060080160009054906101000a900460ff1660058111156102ed576102ec61163c565b5b1461032d576040517f08c379a00000000000000000000000000000000000000000000000000000000081526004016103249061185b565b60405180910390fd5b836002600087815260200190815260200160002060040181905550826002600087815260200190815260200160002060050181905550806002600087815260200190815260200160002060010160006101000a81548173ffffffffffffffffffffffffffffffffffffffff021916908373ffffffffffffffffffffffffffffffffffffffff16021790555081600260008781526020019081526020016000206007018190555082846103df91906118aa565b6002600087815260200190815260200160002060060181905550600280600087815260200190815260200160002060080160006101000a81548160ff021916908360058111156104325761043161163c565b5b0217905550847feb83729e41ad63eb748b67a6121afea612fb910dad4282ad987b4f31ba84f3ab85856040516104699291906118de565b60405180910390a25050505050565b60008054906101000a900473ffffffffffffffffffffffffffffffffffffffff1673ffffffffffffffffffffffffffffffffffffffff163373ffffffffffffffffffffffffffffffffffffffff1614610506576040517f08c379a00000000000000000000000000000000000000000000000000000000081526004016104fd906117ef565b60405180910390fd5b6003600581111561051a5761051961163c565b5b6002600084815260200190815260200160002060080160009054906101000a900460ff1660058111156105505761054f61163c565b5b14610590576040517f08c379a000000000000000000000000000000000000000000000000000000000815260040161058790611953565b60405180910390fd5b806002600084815260200190815260200160002060070181905550817f1942b165aed775defcfe9213a80b80a44218af190ccd1141f9de3adb42f5e72d826040516105db919061123d565b60405180910390a25050565b60008054906101000a900473ffffffffffffffffffffffffffffffffffffffff1681565b60008054906101000a900473ffffffffffffffffffffffffffffffffffffffff1673ffffffffffffffffffffffffffffffffffffffff163373ffffffffffffffffffffffffffffffffffffffff1614610699576040517f08c379a0000000000000000000000000000000000000000000000000000000008152600401610690906117ef565b60405180910390fd5b600160008154809291906106ac90611973565b91905055506040518061012001604052808473ffffffffffffffffffffffffffffffffffffffff168152602001600073ffffffffffffffffffffffffffffffffffffffff16815260200183815260200182815260200160008152602001600081526020016000815260200160008152602001600160058111156107325761073161163c565b5b81525060026000600154815260200190815260200160002060008201518160000160006101000a81548173ffffffffffffffffffffffffffffffffffffffff021916908373ffffffffffffffffffffffffffffffffffffffff16021790555060208201518160010160006101000a81548173ffffffffffffffffffffffffffffffffffffffff021916908373ffffffffffffffffffffffffffffffffffffffff16021790555060408201518160020190816107ed9190611bc7565b50606082015181600301556080820151816004015560a0820151816005015560c0820151816006015560e082015181600701556101008201518160080160006101000a81548160ff0219169083600581111561084c5761084b61163c565b5b02179055509050506001547feeb5d6b56077d478228f63f7be44598af0dd7dee9cc12fdad576aaa736fe4adb84848460405161088a93929190611c99565b60405180910390a2505050565b60026020528060005260406000206000915090508060000160009054906101000a900473ffffffffffffffffffffffffffffffffffffffff16908060010160009054906101000a900473ffffffffffffffffffffffffffffffffffffffff1690806002018054610906906119ea565b80601f0160208091040260200160405190810160405280929190818152602001828054610932906119ea565b801561097f5780601f106109545761010080835404028352916020019161097f565b820191906000526020600020905b81548152906001019060200180831161096257829003601f168201915b5050505050908060030154908060040154908060050154908060060154908060070154908060080160009054906101000a900460ff16905089565b600060026000848152602001908152602001600020905060008054906101000a900473ffffffffffffffffffffffffffffffffffffffff1673ffffffffffffffffffffffffffffffffffffffff163373ffffffffffffffffffffffffffffffffffffffff161480610a7a57508060000160009054906101000a900473ffffffffffffffffffffffffffffffffffffffff1673ffffffffffffffffffffffffffffffffffffffff163373ffffffffffffffffffffffffffffffffffffffff16145b610ab9576040517f08c379a0000000000000000000000000000000000000000000000000000000008152600401610ab090611d49565b60405180910390fd5b60016005811115610acd57610acc61163c565b5b8160080160009054906101000a900460ff166005811115610af157610af061163c565b5b1480610b32575060026005811115610b0c57610b0b61163c565b5b8160080160009054906101000a900460ff166005811115610b3057610b2f61163c565b5b145b610b71576040517f08c379a0000000000000000000000000000000000000000000000000000000008152600401610b6890611ddb565b60405180910390fd5b60036005811115610b8557610b8461163c565b5b8160080160009054906101000a900460ff166005811115610ba957610ba861163c565b5b03610c1e578060000160009054906101000a900473ffffffffffffffffffffffffffffffffffffffff1673ffffffffffffffffffffffffffffffffffffffff166108fc82600601549081150290604051600060405180830381858888f19350505050158015610c1c573d6000803e3d6000fd5b505b60058160080160006101000a81548160ff02191690836005811115610c4657610c4561163c565b5b0217905550827f56d64c06f67a0a2c80b38a9cd2b031e911c22a2c176bea4219adc7f5e3366a9283604051610c7b9190611dfb565b60405180910390a2505050565b806002600082815260200190815260200160002060000160009054906101000a900473ffffffffffffffffffffffffffffffffffffffff1673ffffffffffffffffffffffffffffffffffffffff163373ffffffffffffffffffffffffffffffffffffffff1614610d2d576040517f08c379a0000000000000000000000000000000000000000000000000000000008152600401610d2490611e69565b60405180910390fd5b60026005811115610d4157610d4061163c565b5b6002600084815260200190815260200160002060080160009054906101000a900460ff166005811115610d7757610d7661163c565b5b14610db7576040517f08c379a0000000000000000000000000000000000000000000000000000000008152600401610dae90611ed5565b60405180910390fd5b60026000838152602001908152602001600020600601543414610e0f576040517f08c379a0000000000000000000000000000000000000000000000000000000008152600401610e0690611f41565b60405180910390fd5b60036002600084815260200190815260200160002060080160006101000a81548160ff02191690836005811115610e4957610e4861163c565b5b0217905550817f8e407454c2ee05e919b9fb9bfcd3c8f5cb6757c511136a7c5045ad09234a467360405160405180910390a25050565b806002600082815260200190815260200160002060000160009054906101000a900473ffffffffffffffffffffffffffffffffffffffff1673ffffffffffffffffffffffffffffffffffffffff163373ffffffffffffffffffffffffffffffffffffffff1614610f24576040517f08c379a0000000000000000000000000000000000000000000000000000000008152600401610f1b90611e69565b60405180910390fd5b60036005811115610f3857610f3761163c565b5b6002600084815260200190815260200160002060080160009054906101000a900460ff166005811115610f6e57610f6d61163c565b5b14610fae576040517f08c379a0000000000000000000000000000000000000000000000000000000008152600401610fa590611953565b60405180910390fd5b60046002600084815260200190815260200160002060080160006101000a81548160ff02191690836005811115610fe857610fe761163c565b5b0217905550817fe21fe02c1589242b30be2057f54fd54b7ddc463695d19ffdb54f9ebb0584f24a60405160405180910390a260008054906101000a900473ffffffffffffffffffffffffffffffffffffffff1673ffffffffffffffffffffffffffffffffffffffff166108fc60026000858152602001908152602001600020600401549081150290604051600060405180830381858888f19350505050158015611096573d6000803e3d6000fd5b506002600083815260200190815260200160002060010160009054906101000a900473ffffffffffffffffffffffffffffffffffffffff1673ffffffffffffffffffffffffffffffffffffffff166108fc60026000858152602001908152602001600020600501549081150290604051600060405180830381858888f19350505050158015611129573d6000803e3d6000fd5b50817f21d71db5be59bb9fa133895586b7404307dd33fb93b16db09dc6f1d9d7d231b060008054906101000a900473ffffffffffffffffffffffffffffffffffffffff166002600086815260200190815260200160002060040154604051611192929190611f61565b60405180910390a2817f21d71db5be59bb9fa133895586b7404307dd33fb93b16db09dc6f1d9d7d231b06002600085815260200190815260200160002060010160009054906101000a900473ffffffffffffffffffffffffffffffffffffffff166002600086815260200190815260200160002060050154604051611218929190611f61565b60405180910390a25050565b6000819050919050565b61123781611224565b82525050565b6000602082019050611252600083018461122e565b92915050565b6000604051905090565b600080fd5b600080fd5b61127581611224565b811461128057600080fd5b50565b6000813590506112928161126c565b92915050565b600073ffffffffffffffffffffffffffffffffffffffff82169050919050565b60006112c382611298565b9050919050565b6112d3816112b8565b81146112de57600080fd5b50565b6000813590506112f0816112ca565b92915050565b600080600080600060a0868803121561131257611311611262565b5b600061132088828901611283565b955050602061133188828901611283565b945050604061134288828901611283565b935050606061135388828901611283565b9250506080611364888289016112e1565b9150509295509295909350565b6000806040838503121561138857611387611262565b5b600061139685828601611283565b92505060206113a785828601611283565b9150509250929050565b6113ba816112b8565b82525050565b60006020820190506113d560008301846113b1565b92915050565b600080fd5b600080fd5b6000601f19601f8301169050919050565b7f4e487b7100000000000000000000000000000000000000000000000000000000600052604160045260246000fd5b61142e826113e5565b810181811067ffffffffffffffff8211171561144d5761144c6113f6565b5b80604052505050565b6000611460611258565b905061146c8282611425565b919050565b600067ffffffffffffffff82111561148c5761148b6113f6565b5b611495826113e5565b9050602081019050919050565b82818337600083830152505050565b60006114c46114bf84611471565b611456565b9050828152602081018484840111156114e0576114df6113e0565b5b6114eb8482856114a2565b509392505050565b600082601f830112611508576115076113db565b5b81356115188482602086016114b1565b91505092915050565b60008060006060848603121561153a57611539611262565b5b6000611548868287016112e1565b935050602084013567ffffffffffffffff81111561156957611568611267565b5b611575868287016114f3565b925050604061158686828701611283565b9150509250925092565b6000602082840312156115a6576115a5611262565b5b60006115b484828501611283565b91505092915050565b600081519050919050565b600082825260208201905092915050565b60005b838110156115f75780820151818401526020810190506115dc565b60008484015250505050565b600061160e826115bd565b61161881856115c8565b93506116288185602086016115d9565b611631816113e5565b840191505092915050565b7f4e487b7100000000000000000000000000000000000000000000000000000000600052602160045260246000fd5b6006811061167c5761167b61163c565b5b50565b600081905061168d8261166b565b919050565b600061169d8261167f565b9050919050565b6116ad81611692565b82525050565b6000610120820190506116c9600083018c6113b1565b6116d6602083018b6113b1565b81810360408301526116e8818a611603565b90506116f7606083018961122e565b611704608083018861122e565b61171160a083018761122e565b61171e60c083018661122e565b61172b60e083018561122e565b6117396101008301846116a4565b9a9950505050505050505050565b6000806040838503121561175e5761175d611262565b5b600061176c85828601611283565b925050602083013567ffffffffffffffff81111561178d5761178c611267565b5b611799858286016114f3565b9150509250929050565b7f4e6f7420746865204d616e756661637475726572000000000000000000000000600082015250565b60006117d96014836115c8565b91506117e4826117a3565b602082019050919050565b60006020820190508181036000830152611808816117cc565b9050919050565b7f4f72646572206e6f7420696e204f726465726564207374617475730000000000600082015250565b6000611845601b836115c8565b91506118508261180f565b602082019050919050565b6000602082019050818103600083015261187481611838565b9050919050565b7f4e487b7100000000000000000000000000000000000000000000000000000000600052601160045260246000fd5b60006118b582611224565b91506118c083611224565b92508282019050808211156118d8576118d761187b565b5b92915050565b60006040820190506118f3600083018561122e565b611900602083018461122e565b9392505050565b7f5061796d656e74206e6f7420636f6d706c657465640000000000000000000000600082015250565b600061193d6015836115c8565b915061194882611907565b602082019050919050565b6000602082019050818103600083015261196c81611930565b9050919050565b600061197e82611224565b91507fffffffffffffffffffffffffffffffffffffffffffffffffffffffffffffffff82036119b0576119af61187b565b5b600182019050919050565b7f4e487b7100000000000000000000000000000000000000000000000000000000600052602260045260246000fd5b60006002820490506001821680611a0257607f821691505b602082108103611a1557611a146119bb565b5b50919050565b60008190508160005260206000209050919050565b60006020601f8301049050919050565b600082821b905092915050565b600060088302611a7d7fffffffffffffffffffffffffffffffffffffffffffffffffffffffffffffffff82611a40565b611a878683611a40565b95508019841693508086168417925050509392505050565b6000819050919050565b6000611ac4611abf611aba84611224565b611a9f565b611224565b9050919050565b6000819050919050565b611ade83611aa9565b611af2611aea82611acb565b848454611a4d565b825550505050565b600090565b611b07611afa565b611b12818484611ad5565b505050565b5b81811015611b3657611b2b600082611aff565b600181019050611b18565b5050565b601f821115611b7b57611b4c81611a1b565b611b5584611a30565b81016020851015611b64578190505b611b78611b7085611a30565b830182611b17565b50505b505050565b600082821c905092915050565b6000611b9e60001984600802611b80565b1980831691505092915050565b6000611bb78383611b8d565b9150826002028217905092915050565b611bd0826115bd565b67ffffffffffffffff811115611be957611be86113f6565b5b611bf382546119ea565b611bfe828285611b3a565b600060209050601f831160018114611c315760008415611c1f578287015190505b611c298582611bab565b865550611c91565b601f198416611c3f86611a1b565b60005b82811015611c6757848901518255600182019150602085019450602081019050611c42565b86831015611c845784890151611c80601f891682611b8d565b8355505b6001600288020188555050505b505050505050565b6000606082019050611cae60008301866113b1565b8181036020830152611cc08185611603565b9050611ccf604083018461122e565b949350505050565b7f4f6e6c79204d616e756661637475726572206f722052657461696c657220636160008201527f6e2063616e63656c20746865206f726465720000000000000000000000000000602082015250565b6000611d336032836115c8565b9150611d3e82611cd7565b604082019050919050565b60006020820190508181036000830152611d6281611d26565b9050919050565b7f4f726465722063616e6e6f742062652063616e63656c6c65642061742074686960008201527f7320737461676500000000000000000000000000000000000000000000000000602082015250565b6000611dc56027836115c8565b9150611dd082611d69565b604082019050919050565b60006020820190508181036000830152611df481611db8565b9050919050565b60006020820190508181036000830152611e158184611603565b905092915050565b7f4e6f74207468652052657461696c657220666f722074686973204f7264657200600082015250565b6000611e53601f836115c8565b9150611e5e82611e1d565b602082019050919050565b60006020820190508181036000830152611e8281611e46565b9050919050565b7f507269636573206e6f7420736574207965740000000000000000000000000000600082015250565b6000611ebf6012836115c8565b9150611eca82611e89565b602082019050919050565b60006020820190508181036000830152611eee81611eb2565b9050919050565b7f496e636f7272656374207061796d656e7420616d6f756e740000000000000000600082015250565b6000611f2b6018836115c8565b9150611f3682611ef5565b602082019050919050565b60006020820190508181036000830152611f5a81611f1e565b9050919050565b6000604082019050611f7660008301856113b1565b611f83602083018461122e565b939250505056fea26469706673582212209e2e34640d0b5b1e53430d6ea76d02c1bc061a5a814efc9bb95c1f646292125064736f6c63430008130033",
  "immutableReferences": {},
  "source": "// SPDX-License-Identifier: MIT\npragma solidity ^0.8.19;\n\ncontract SupplyChain {\n    address public manufacturer;\n\n    struct Order {\n        address retailer;\n        address courier;\n        string product;\n        uint256 quantity;\n        uint256 orderPrice;\n        uint256 shipmentPrice;\n        uint256 grandTotal;\n        uint256 deliveryDate;\n        OrderStatus status;\n    }\n\n    enum OrderStatus { None, Ordered, Priced, Paid, Delivered, Cancelled }\n\n    uint256 public orderCount;\n    mapping(uint256 => Order) public orders;\n\n    event OrderCreated(uint256 indexed orderId, address retailer, string product, uint256 quantity);\n    event PriceSent(uint256 indexed orderId, uint256 orderPrice, uint256 shipmentPrice);\n    event OrderPayed(uint256 indexed orderId);\n    event OrderDelivered(uint256 indexed orderId);\n    event OrderCancelled(uint256 indexed orderId, string reason);\n    event PaymentReleased(uint256 indexed orderId, address to, uint256 amount);\n    event InvoiceSent(uint256 indexed orderId, uint256 deliveryDate);\n\n    constructor() {\n        manufacturer = msg.sender;\n        orderCount = 0;\n    }\n\n    modifier onlyManufacturer() {\n        require(msg.sender == manufacturer, \"Not the Manufacturer\");\n        _;\n    }\n\n    modifier onlyRetailer(uint256 orderId) {\n        require(msg.sender == orders[orderId].retailer, \"Not the Retailer for this Order\");\n        _;\n    }\n\n    modifier onlyCourier(uint256 orderId) {\n        require(msg.sender == orders[orderId].courier, \"Not the Courier\");\n        _;\n    }\n\n    function createOrder(address retailer, string memory product, uint256 quantity) public onlyManufacturer {\n        orderCount++;\n        orders[orderCount] = Order({\n            retailer: retailer,\n            courier: address(0),\n            product: product,\n            quantity: quantity,\n            orderPrice: 0,\n            shipmentPrice: 0,\n            grandTotal: 0,\n            deliveryDate: 0,\n            status: OrderStatus.Ordered\n        });\n\n        emit OrderCreated(orderCount, retailer, product, quantity);\n    }\n\n    function setPrices(uint256 orderId, uint256 _orderPrice, uint256 _shipmentPrice, uint256 _deliveryDate, address _courier) public onlyManufacturer {\n        require(orders[orderId].status == OrderStatus.Ordered, \"Order not in Ordered status\");\n        orders[orderId].orderPrice = _orderPrice;\n        orders[orderId].shipmentPrice = _shipmentPrice;\n        orders[orderId].courier = _courier;\n        orders[orderId].deliveryDate = _deliveryDate;\n        orders[orderId].grandTotal = _orderPrice + _shipmentPrice;\n        orders[orderId].status = OrderStatus.Priced;\n\n        emit PriceSent(orderId, _orderPrice, _shipmentPrice);\n    }\n\n    function pay(uint256 orderId) public payable onlyRetailer(orderId) {\n        require(orders[orderId].status == OrderStatus.Priced, \"Prices not set yet\");\n        require(msg.value == orders[orderId].grandTotal, \"Incorrect payment amount\");\n        orders[orderId].status = OrderStatus.Paid;\n\n        emit OrderPayed(orderId);\n    }\n\n    function sendInvoice(uint256 orderId, uint256 deliveryDate) public onlyManufacturer {\n        require(orders[orderId].status == OrderStatus.Paid, \"Payment not completed\");\n        orders[orderId].deliveryDate = deliveryDate;\n\n        emit InvoiceSent(orderId, deliveryDate);\n    }\n\n    function markDelivered(uint256 orderId) public onlyRetailer(orderId) {\n        require(orders[orderId].status == OrderStatus.Paid, \"Payment not completed\");\n        orders[orderId].status = OrderStatus.Delivered;\n\n        emit OrderDelivered(orderId);\n\n        // Payout\n        payable(manufacturer).transfer(orders[orderId].orderPrice);\n        payable(orders[orderId].courier).transfer(orders[orderId].shipmentPrice);\n\n        emit PaymentReleased(orderId, manufacturer, orders[orderId].orderPrice);\n        emit PaymentReleased(orderId, orders[orderId].courier, orders[orderId].shipmentPrice);\n    }\n\n    function cancelOrder(uint256 orderId, string memory reason) public {\n        Order storage order = orders[orderId];\n        require(\n            msg.sender == manufacturer || msg.sender == order.retailer,\n            \"Only Manufacturer or Retailer can cancel the order\"\n        );\n        require(\n            order.status == OrderStatus.Ordered || order.status == OrderStatus.Priced,\n            \"Order cannot be cancelled at this stage\"\n        );\n\n        // If payment was made, refund the retailer\n        if (order.status == OrderStatus.Paid) {\n            payable(order.retailer).transfer(order.grandTotal);\n        }\n\n        order.status = OrderStatus.Cancelled;\n\n        emit OrderCancelled(orderId, reason);\n    }\n}\n",
  "sourcePath": "C:\\Programos\\smartContractBasic\\contracts\\SupplyChain.sol",
  "compiler": {
    "name": "solc",
    "version": "0.8.19+commit.7dd6d404.Emscripten.clang"
  },
  "schemaVersion": "3.4.16",
  "updatedAt": "2024-12-12T10:30:37.324Z",
  "networkType": "ethereum",
  "devdoc": {
    "kind": "dev",
    "methods": {},
    "version": 1
  },
  "userdoc": {
    "kind": "user",
    "methods": {},
    "version": 1
  }
}