{
  "contractName": "SupplyChain",
  "abi": [
    {
      "inputs": [],
      "stateMutability": "nonpayable",
      "type": "constructor"
    },
    {
      "anonymous": false,
      "inputs": [
        {
          "indexed": true,
          "internalType": "uint256",
          "name": "orderId",
          "type": "uint256"
        },
        {
          "indexed": false,
          "internalType": "uint256",
          "name": "deliveryDate",
          "type": "uint256"
        },
        {
          "indexed": false,
          "internalType": "string",
          "name": "otherData",
          "type": "string"
        }
      ],
      "name": "InvoiceSent",
      "type": "event"
    },
    {
      "anonymous": false,
      "inputs": [
        {
          "indexed": true,
          "internalType": "uint256",
          "name": "orderId",
          "type": "uint256"
        },
        {
          "indexed": false,
          "internalType": "string",
          "name": "reason",
          "type": "string"
        }
      ],
      "name": "OrderCancelled",
      "type": "event"
    },
    {
      "anonymous": false,
      "inputs": [
        {
          "indexed": true,
          "internalType": "uint256",
          "name": "orderId",
          "type": "uint256"
        },
        {
          "indexed": false,
          "internalType": "address",
          "name": "retailer",
          "type": "address"
        },
        {
          "indexed": false,
          "internalType": "string",
          "name": "product",
          "type": "string"
        },
        {
          "indexed": false,
          "internalType": "uint256",
          "name": "quantity",
          "type": "uint256"
        }
      ],
      "name": "OrderCreated",
      "type": "event"
    },
    {
      "anonymous": false,
      "inputs": [
        {
          "indexed": true,
          "internalType": "uint256",
          "name": "orderId",
          "type": "uint256"
        }
      ],
      "name": "OrderDelivered",
      "type": "event"
    },
    {
      "anonymous": false,
      "inputs": [
        {
          "indexed": true,
          "internalType": "uint256",
          "name": "orderId",
          "type": "uint256"
        },
        {
          "indexed": false,
          "internalType": "address",
          "name": "to",
          "type": "address"
        },
        {
          "indexed": false,
          "internalType": "uint256",
          "name": "amount",
          "type": "uint256"
        }
      ],
      "name": "PaymentReleased",
      "type": "event"
    },
    {
      "anonymous": false,
      "inputs": [
        {
          "indexed": true,
          "internalType": "uint256",
          "name": "orderId",
          "type": "uint256"
        },
        {
          "indexed": false,
          "internalType": "uint256",
          "name": "orderPrice",
          "type": "uint256"
        },
        {
          "indexed": false,
          "internalType": "uint256",
          "name": "shipmentPrice",
          "type": "uint256"
        }
      ],
      "name": "PriceSent",
      "type": "event"
    },
    {
      "inputs": [],
      "name": "manufacturer",
      "outputs": [
        {
          "internalType": "address",
          "name": "",
          "type": "address"
        }
      ],
      "stateMutability": "view",
      "type": "function",
      "constant": true
    },
    {
      "inputs": [],
      "name": "orderCount",
      "outputs": [
        {
          "internalType": "uint256",
          "name": "",
          "type": "uint256"
        }
      ],
      "stateMutability": "view",
      "type": "function",
      "constant": true
    },
    {
      "inputs": [
        {
          "internalType": "uint256",
          "name": "",
          "type": "uint256"
        }
      ],
      "name": "orders",
      "outputs": [
        {
          "internalType": "address",
          "name": "retailer",
          "type": "address"
        },
        {
          "internalType": "address",
          "name": "courier",
          "type": "address"
        },
        {
          "internalType": "string",
          "name": "product",
          "type": "string"
        },
        {
          "internalType": "uint256",
          "name": "quantity",
          "type": "uint256"
        },
        {
          "internalType": "uint256",
          "name": "orderPrice",
          "type": "uint256"
        },
        {
          "internalType": "uint256",
          "name": "shipmentPrice",
          "type": "uint256"
        },
        {
          "internalType": "uint256",
          "name": "grandTotal",
          "type": "uint256"
        },
        {
          "internalType": "uint256",
          "name": "deliveryDate",
          "type": "uint256"
        },
        {
          "internalType": "string",
          "name": "otherData",
          "type": "string"
        },
        {
          "internalType": "enum SupplyChain.OrderStatus",
          "name": "status",
          "type": "uint8"
        }
      ],
      "stateMutability": "view",
      "type": "function",
      "constant": true
    },
    {
      "inputs": [
        {
          "internalType": "address",
          "name": "retailer",
          "type": "address"
        },
        {
          "internalType": "string",
          "name": "product",
          "type": "string"
        },
        {
          "internalType": "uint256",
          "name": "quantity",
          "type": "uint256"
        }
      ],
      "name": "createOrder",
      "outputs": [],
      "stateMutability": "nonpayable",
      "type": "function"
    },
    {
      "inputs": [
        {
          "internalType": "uint256",
          "name": "orderId",
          "type": "uint256"
        },
        {
          "internalType": "uint256",
          "name": "_orderPrice",
          "type": "uint256"
        },
        {
          "internalType": "uint256",
          "name": "_shipmentPrice",
          "type": "uint256"
        },
        {
          "internalType": "uint256",
          "name": "_deliveryDate",
          "type": "uint256"
        },
        {
          "internalType": "address",
          "name": "_courier",
          "type": "address"
        }
      ],
      "name": "setPrices",
      "outputs": [],
      "stateMutability": "nonpayable",
      "type": "function"
    },
    {
      "inputs": [
        {
          "internalType": "uint256",
          "name": "orderId",
          "type": "uint256"
        }
      ],
      "name": "pay",
      "outputs": [],
      "stateMutability": "payable",
      "type": "function",
      "payable": true
    },
    {
      "inputs": [
        {
          "internalType": "uint256",
          "name": "orderId",
          "type": "uint256"
        },
        {
          "internalType": "uint256",
          "name": "deliveryDate",
          "type": "uint256"
        },
        {
          "internalType": "string",
          "name": "otherData",
          "type": "string"
        }
      ],
      "name": "sendInvoice",
      "outputs": [],
      "stateMutability": "nonpayable",
      "type": "function"
    },
    {
      "inputs": [
        {
          "internalType": "uint256",
          "name": "orderId",
          "type": "uint256"
        }
      ],
      "name": "markDelivered",
      "outputs": [],
      "stateMutability": "nonpayable",
      "type": "function"
    },
    {
      "inputs": [
        {
          "internalType": "uint256",
          "name": "orderId",
          "type": "uint256"
        },
        {
          "internalType": "string",
          "name": "reason",
          "type": "string"
        }
      ],
      "name": "cancelOrder",
      "outputs": [],
      "stateMutability": "nonpayable",
      "type": "function"
    }
  ],
  "bytecode": "0x608060405234801561001057600080fd5b50336000806101000a81548173ffffffffffffffffffffffffffffffffffffffff021916908373ffffffffffffffffffffffffffffffffffffffff1602179055506000600181905550612156806100686000396000f3fe6080604052600436106100865760003560e01c806384d3afe61161005957806384d3afe614610133578063a85c38ef1461015c578063ad7e2181146101a2578063c290d691146101cb578063eb826a5f146101e757610086565b80632453ffa81461008b5780633ded757e146100b657806353e1df56146100df5780637475428214610108575b600080fd5b34801561009757600080fd5b506100a0610210565b6040516100ad91906112f2565b60405180910390f35b3480156100c257600080fd5b506100dd60048036038101906100d891906113ab565b610216565b005b3480156100eb57600080fd5b506101066004803603810190610101919061156c565b610479565b005b34801561011457600080fd5b5061011d61060f565b60405161012a91906115ea565b60405180910390f35b34801561013f57600080fd5b5061015a60048036038101906101559190611605565b610633565b005b34801561016857600080fd5b50610183600480360381019061017e9190611674565b6108eb565b6040516101999a99989796959493929190611797565b60405180910390f35b3480156101ae57600080fd5b506101c960048036038101906101c49190611841565b610a9c565b005b6101e560048036038101906101e09190611674565b610d6a565b005b3480156101f357600080fd5b5061020e60048036038101906102099190611674565b610f34565b005b60015481565b60008054906101000a900473ffffffffffffffffffffffffffffffffffffffff1673ffffffffffffffffffffffffffffffffffffffff163373ffffffffffffffffffffffffffffffffffffffff16146102a4576040517f08c379a000000000000000000000000000000000000000000000000000000000815260040161029b906118e9565b60405180910390fd5b600160058111156102b8576102b7611720565b5b6002600087815260200190815260200160002060090160009054906101000a900460ff1660058111156102ee576102ed611720565b5b1461032e576040517f08c379a000000000000000000000000000000000000000000000000000000000815260040161032590611955565b60405180910390fd5b836002600087815260200190815260200160002060040181905550826002600087815260200190815260200160002060050181905550806002600087815260200190815260200160002060010160006101000a81548173ffffffffffffffffffffffffffffffffffffffff021916908373ffffffffffffffffffffffffffffffffffffffff16021790555081600260008781526020019081526020016000206007018190555082846103e091906119a4565b6002600087815260200190815260200160002060060181905550600280600087815260200190815260200160002060090160006101000a81548160ff0219169083600581111561043357610432611720565b5b0217905550847feb83729e41ad63eb748b67a6121afea612fb910dad4282ad987b4f31ba84f3ab858560405161046a9291906119d8565b60405180910390a25050505050565b60008054906101000a900473ffffffffffffffffffffffffffffffffffffffff1673ffffffffffffffffffffffffffffffffffffffff163373ffffffffffffffffffffffffffffffffffffffff1614610507576040517f08c379a00000000000000000000000000000000000000000000000000000000081526004016104fe906118e9565b60405180910390fd5b6003600581111561051b5761051a611720565b5b6002600085815260200190815260200160002060090160009054906101000a900460ff16600581111561055157610550611720565b5b14610591576040517f08c379a000000000000000000000000000000000000000000000000000000000815260040161058890611a4d565b60405180910390fd5b816002600085815260200190815260200160002060070181905550806002600085815260200190815260200160002060080190816105cf9190611c79565b50827f83b74f11f6aede4e5864667bcd849d099d132dc86f8dea06c2a2e3e2b62a371d8383604051610602929190611d4b565b60405180910390a2505050565b60008054906101000a900473ffffffffffffffffffffffffffffffffffffffff1681565b60008054906101000a900473ffffffffffffffffffffffffffffffffffffffff1673ffffffffffffffffffffffffffffffffffffffff163373ffffffffffffffffffffffffffffffffffffffff16146106c1576040517f08c379a00000000000000000000000000000000000000000000000000000000081526004016106b8906118e9565b60405180910390fd5b600160008154809291906106d490611d7b565b91905055506040518061014001604052808473ffffffffffffffffffffffffffffffffffffffff168152602001600073ffffffffffffffffffffffffffffffffffffffff168152602001838152602001828152602001600081526020016000815260200160008152602001600081526020016040518060200160405280600081525081526020016001600581111561076f5761076e611720565b5b81525060026000600154815260200190815260200160002060008201518160000160006101000a81548173ffffffffffffffffffffffffffffffffffffffff021916908373ffffffffffffffffffffffffffffffffffffffff16021790555060208201518160010160006101000a81548173ffffffffffffffffffffffffffffffffffffffff021916908373ffffffffffffffffffffffffffffffffffffffff160217905550604082015181600201908161082a9190611c79565b50606082015181600301556080820151816004015560a0820151816005015560c0820151816006015560e082015181600701556101008201518160080190816108739190611c79565b506101208201518160090160006101000a81548160ff021916908360058111156108a05761089f611720565b5b02179055509050506001547feeb5d6b56077d478228f63f7be44598af0dd7dee9cc12fdad576aaa736fe4adb8484846040516108de93929190611dc3565b60405180910390a2505050565b60026020528060005260406000206000915090508060000160009054906101000a900473ffffffffffffffffffffffffffffffffffffffff16908060010160009054906101000a900473ffffffffffffffffffffffffffffffffffffffff169080600201805461095a90611a9c565b80601f016020809104026020016040519081016040528092919081815260200182805461098690611a9c565b80156109d35780601f106109a8576101008083540402835291602001916109d3565b820191906000526020600020905b8154815290600101906020018083116109b657829003601f168201915b505050505090806003015490806004015490806005015490806006015490806007015490806008018054610a0690611a9c565b80601f0160208091040260200160405190810160405280929190818152602001828054610a3290611a9c565b8015610a7f5780601f10610a5457610100808354040283529160200191610a7f565b820191906000526020600020905b815481529060010190602001808311610a6257829003601f168201915b5050505050908060090160009054906101000a900460ff1690508a565b600060026000848152602001908152602001600020905060008054906101000a900473ffffffffffffffffffffffffffffffffffffffff1673ffffffffffffffffffffffffffffffffffffffff163373ffffffffffffffffffffffffffffffffffffffff161480610b5c57508060000160009054906101000a900473ffffffffffffffffffffffffffffffffffffffff1673ffffffffffffffffffffffffffffffffffffffff163373ffffffffffffffffffffffffffffffffffffffff16145b610b9b576040517f08c379a0000000000000000000000000000000000000000000000000000000008152600401610b9290611e73565b60405180910390fd5b60016005811115610baf57610bae611720565b5b8160090160009054906101000a900460ff166005811115610bd357610bd2611720565b5b1480610c14575060026005811115610bee57610bed611720565b5b8160090160009054906101000a900460ff166005811115610c1257610c11611720565b5b145b610c53576040517f08c379a0000000000000000000000000000000000000000000000000000000008152600401610c4a90611f05565b60405180910390fd5b60036005811115610c6757610c66611720565b5b8160090160009054906101000a900460ff166005811115610c8b57610c8a611720565b5b03610d00578060000160009054906101000a900473ffffffffffffffffffffffffffffffffffffffff1673ffffffffffffffffffffffffffffffffffffffff166108fc82600601549081150290604051600060405180830381858888f19350505050158015610cfe573d6000803e3d6000fd5b505b60058160090160006101000a81548160ff02191690836005811115610d2857610d27611720565b5b0217905550827f56d64c06f67a0a2c80b38a9cd2b031e911c22a2c176bea4219adc7f5e3366a9283604051610d5d9190611f25565b60405180910390a2505050565b806002600082815260200190815260200160002060000160009054906101000a900473ffffffffffffffffffffffffffffffffffffffff1673ffffffffffffffffffffffffffffffffffffffff163373ffffffffffffffffffffffffffffffffffffffff1614610e0f576040517f08c379a0000000000000000000000000000000000000000000000000000000008152600401610e0690611f93565b60405180910390fd5b60026005811115610e2357610e22611720565b5b6002600084815260200190815260200160002060090160009054906101000a900460ff166005811115610e5957610e58611720565b5b14610e99576040517f08c379a0000000000000000000000000000000000000000000000000000000008152600401610e9090611fff565b60405180910390fd5b60026000838152602001908152602001600020600601543414610ef1576040517f08c379a0000000000000000000000000000000000000000000000000000000008152600401610ee89061206b565b60405180910390fd5b60036002600084815260200190815260200160002060090160006101000a81548160ff02191690836005811115610f2b57610f2a611720565b5b02179055505050565b806002600082815260200190815260200160002060010160009054906101000a900473ffffffffffffffffffffffffffffffffffffffff1673ffffffffffffffffffffffffffffffffffffffff163373ffffffffffffffffffffffffffffffffffffffff1614610fd9576040517f08c379a0000000000000000000000000000000000000000000000000000000008152600401610fd0906120d7565b60405180910390fd5b60036005811115610fed57610fec611720565b5b6002600084815260200190815260200160002060090160009054906101000a900460ff16600581111561102357611022611720565b5b14611063576040517f08c379a000000000000000000000000000000000000000000000000000000000815260040161105a90611a4d565b60405180910390fd5b60046002600084815260200190815260200160002060090160006101000a81548160ff0219169083600581111561109d5761109c611720565b5b0217905550817fe21fe02c1589242b30be2057f54fd54b7ddc463695d19ffdb54f9ebb0584f24a60405160405180910390a260008054906101000a900473ffffffffffffffffffffffffffffffffffffffff1673ffffffffffffffffffffffffffffffffffffffff166108fc60026000858152602001908152602001600020600401549081150290604051600060405180830381858888f1935050505015801561114b573d6000803e3d6000fd5b506002600083815260200190815260200160002060010160009054906101000a900473ffffffffffffffffffffffffffffffffffffffff1673ffffffffffffffffffffffffffffffffffffffff166108fc60026000858152602001908152602001600020600501549081150290604051600060405180830381858888f193505050501580156111de573d6000803e3d6000fd5b50817f21d71db5be59bb9fa133895586b7404307dd33fb93b16db09dc6f1d9d7d231b060008054906101000a900473ffffffffffffffffffffffffffffffffffffffff1660026000868152602001908152602001600020600401546040516112479291906120f7565b60405180910390a2817f21d71db5be59bb9fa133895586b7404307dd33fb93b16db09dc6f1d9d7d231b06002600085815260200190815260200160002060010160009054906101000a900473ffffffffffffffffffffffffffffffffffffffff1660026000868152602001908152602001600020600501546040516112cd9291906120f7565b60405180910390a25050565b6000819050919050565b6112ec816112d9565b82525050565b600060208201905061130760008301846112e3565b92915050565b6000604051905090565b600080fd5b600080fd5b61132a816112d9565b811461133557600080fd5b50565b60008135905061134781611321565b92915050565b600073ffffffffffffffffffffffffffffffffffffffff82169050919050565b60006113788261134d565b9050919050565b6113888161136d565b811461139357600080fd5b50565b6000813590506113a58161137f565b92915050565b600080600080600060a086880312156113c7576113c6611317565b5b60006113d588828901611338565b95505060206113e688828901611338565b94505060406113f788828901611338565b935050606061140888828901611338565b925050608061141988828901611396565b9150509295509295909350565b600080fd5b600080fd5b6000601f19601f8301169050919050565b7f4e487b7100000000000000000000000000000000000000000000000000000000600052604160045260246000fd5b61147982611430565b810181811067ffffffffffffffff8211171561149857611497611441565b5b80604052505050565b60006114ab61130d565b90506114b78282611470565b919050565b600067ffffffffffffffff8211156114d7576114d6611441565b5b6114e082611430565b9050602081019050919050565b82818337600083830152505050565b600061150f61150a846114bc565b6114a1565b90508281526020810184848401111561152b5761152a61142b565b5b6115368482856114ed565b509392505050565b600082601f83011261155357611552611426565b5b81356115638482602086016114fc565b91505092915050565b60008060006060848603121561158557611584611317565b5b600061159386828701611338565b93505060206115a486828701611338565b925050604084013567ffffffffffffffff8111156115c5576115c461131c565b5b6115d18682870161153e565b9150509250925092565b6115e48161136d565b82525050565b60006020820190506115ff60008301846115db565b92915050565b60008060006060848603121561161e5761161d611317565b5b600061162c86828701611396565b935050602084013567ffffffffffffffff81111561164d5761164c61131c565b5b6116598682870161153e565b925050604061166a86828701611338565b9150509250925092565b60006020828403121561168a57611689611317565b5b600061169884828501611338565b91505092915050565b600081519050919050565b600082825260208201905092915050565b60005b838110156116db5780820151818401526020810190506116c0565b60008484015250505050565b60006116f2826116a1565b6116fc81856116ac565b935061170c8185602086016116bd565b61171581611430565b840191505092915050565b7f4e487b7100000000000000000000000000000000000000000000000000000000600052602160045260246000fd5b600681106117605761175f611720565b5b50565b60008190506117718261174f565b919050565b600061178182611763565b9050919050565b61179181611776565b82525050565b6000610140820190506117ad600083018d6115db565b6117ba602083018c6115db565b81810360408301526117cc818b6116e7565b90506117db606083018a6112e3565b6117e860808301896112e3565b6117f560a08301886112e3565b61180260c08301876112e3565b61180f60e08301866112e3565b81810361010083015261182281856116e7565b9050611832610120830184611788565b9b9a5050505050505050505050565b6000806040838503121561185857611857611317565b5b600061186685828601611338565b925050602083013567ffffffffffffffff8111156118875761188661131c565b5b6118938582860161153e565b9150509250929050565b7f4e6f7420746865204d616e756661637475726572000000000000000000000000600082015250565b60006118d36014836116ac565b91506118de8261189d565b602082019050919050565b60006020820190508181036000830152611902816118c6565b9050919050565b7f4f72646572206e6f7420696e204f726465726564207374617475730000000000600082015250565b600061193f601b836116ac565b915061194a82611909565b602082019050919050565b6000602082019050818103600083015261196e81611932565b9050919050565b7f4e487b7100000000000000000000000000000000000000000000000000000000600052601160045260246000fd5b60006119af826112d9565b91506119ba836112d9565b92508282019050808211156119d2576119d1611975565b5b92915050565b60006040820190506119ed60008301856112e3565b6119fa60208301846112e3565b9392505050565b7f5061796d656e74206e6f7420636f6d706c657465640000000000000000000000600082015250565b6000611a376015836116ac565b9150611a4282611a01565b602082019050919050565b60006020820190508181036000830152611a6681611a2a565b9050919050565b7f4e487b7100000000000000000000000000000000000000000000000000000000600052602260045260246000fd5b60006002820490506001821680611ab457607f821691505b602082108103611ac757611ac6611a6d565b5b50919050565b60008190508160005260206000209050919050565b60006020601f8301049050919050565b600082821b905092915050565b600060088302611b2f7fffffffffffffffffffffffffffffffffffffffffffffffffffffffffffffffff82611af2565b611b398683611af2565b95508019841693508086168417925050509392505050565b6000819050919050565b6000611b76611b71611b6c846112d9565b611b51565b6112d9565b9050919050565b6000819050919050565b611b9083611b5b565b611ba4611b9c82611b7d565b848454611aff565b825550505050565b600090565b611bb9611bac565b611bc4818484611b87565b505050565b5b81811015611be857611bdd600082611bb1565b600181019050611bca565b5050565b601f821115611c2d57611bfe81611acd565b611c0784611ae2565b81016020851015611c16578190505b611c2a611c2285611ae2565b830182611bc9565b50505b505050565b600082821c905092915050565b6000611c5060001984600802611c32565b1980831691505092915050565b6000611c698383611c3f565b9150826002028217905092915050565b611c82826116a1565b67ffffffffffffffff811115611c9b57611c9a611441565b5b611ca58254611a9c565b611cb0828285611bec565b600060209050601f831160018114611ce35760008415611cd1578287015190505b611cdb8582611c5d565b865550611d43565b601f198416611cf186611acd565b60005b82811015611d1957848901518255600182019150602085019450602081019050611cf4565b86831015611d365784890151611d32601f891682611c3f565b8355505b6001600288020188555050505b505050505050565b6000604082019050611d6060008301856112e3565b8181036020830152611d7281846116e7565b90509392505050565b6000611d86826112d9565b91507fffffffffffffffffffffffffffffffffffffffffffffffffffffffffffffffff8203611db857611db7611975565b5b600182019050919050565b6000606082019050611dd860008301866115db565b8181036020830152611dea81856116e7565b9050611df960408301846112e3565b949350505050565b7f4f6e6c79204d616e756661637475726572206f722052657461696c657220636160008201527f6e2063616e63656c20746865206f726465720000000000000000000000000000602082015250565b6000611e5d6032836116ac565b9150611e6882611e01565b604082019050919050565b60006020820190508181036000830152611e8c81611e50565b9050919050565b7f4f726465722063616e6e6f742062652063616e63656c6c65642061742074686960008201527f7320737461676500000000000000000000000000000000000000000000000000602082015250565b6000611eef6027836116ac565b9150611efa82611e93565b604082019050919050565b60006020820190508181036000830152611f1e81611ee2565b9050919050565b60006020820190508181036000830152611f3f81846116e7565b905092915050565b7f4e6f74207468652052657461696c657220666f722074686973204f7264657200600082015250565b6000611f7d601f836116ac565b9150611f8882611f47565b602082019050919050565b60006020820190508181036000830152611fac81611f70565b9050919050565b7f507269636573206e6f7420736574207965740000000000000000000000000000600082015250565b6000611fe96012836116ac565b9150611ff482611fb3565b602082019050919050565b6000602082019050818103600083015261201881611fdc565b9050919050565b7f496e636f7272656374207061796d656e7420616d6f756e740000000000000000600082015250565b60006120556018836116ac565b91506120608261201f565b602082019050919050565b6000602082019050818103600083015261208481612048565b9050919050565b7f4e6f742074686520436f75726965720000000000000000000000000000000000600082015250565b60006120c1600f836116ac565b91506120cc8261208b565b602082019050919050565b600060208201905081810360008301526120f0816120b4565b9050919050565b600060408201905061210c60008301856115db565b61211960208301846112e3565b939250505056fea264697066735822122021e273df017442e68dec9ca8f84a4bab4ff74b6516bb721627531fb72aafa91e64736f6c63430008130033",
  "immutableReferences": {},
  "source": "// SPDX-License-Identifier: MIT\npragma solidity ^0.8.19;\n\ncontract SupplyChain {\n    address public manufacturer;\n\n    struct Order {\n        address retailer;\n        address courier;\n        string product;\n        uint256 quantity;\n        uint256 orderPrice;\n        uint256 shipmentPrice;\n        uint256 grandTotal;\n        uint256 deliveryDate;\n        string otherData;\n        OrderStatus status;\n    }\n\n    enum OrderStatus { None, Ordered, Priced, Paid, Delivered, Cancelled }\n\n    uint256 public orderCount;\n    mapping(uint256 => Order) public orders;\n\n    event OrderCreated(uint256 indexed orderId, address retailer, string product, uint256 quantity);\n    event PriceSent(uint256 indexed orderId, uint256 orderPrice, uint256 shipmentPrice);\n    event InvoiceSent(uint256 indexed orderId, uint256 deliveryDate, string otherData);\n    event OrderDelivered(uint256 indexed orderId);\n    event OrderCancelled(uint256 indexed orderId, string reason);\n    event PaymentReleased(uint256 indexed orderId, address to, uint256 amount);\n\n    constructor() {\n        manufacturer = msg.sender;\n        orderCount = 0;\n    }\n\n    modifier onlyManufacturer() {\n        require(msg.sender == manufacturer, \"Not the Manufacturer\");\n        _;\n    }\n\n    modifier onlyRetailer(uint256 orderId) {\n        require(msg.sender == orders[orderId].retailer, \"Not the Retailer for this Order\");\n        _;\n    }\n\n    modifier onlyCourier(uint256 orderId) {\n        require(msg.sender == orders[orderId].courier, \"Not the Courier\");\n        _;\n    }\n\n    function createOrder(address retailer, string memory product, uint256 quantity) public onlyManufacturer {\n        orderCount++;\n        orders[orderCount] = Order({\n            retailer: retailer,\n            courier: address(0),\n            product: product,\n            quantity: quantity,\n            orderPrice: 0,\n            shipmentPrice: 0,\n            grandTotal: 0,\n            deliveryDate: 0,\n            otherData: \"\",\n            status: OrderStatus.Ordered\n        });\n\n        emit OrderCreated(orderCount, retailer, product, quantity);\n    }\n\n    function setPrices(uint256 orderId, uint256 _orderPrice, uint256 _shipmentPrice, uint256 _deliveryDate, address _courier) public onlyManufacturer {\n        require(orders[orderId].status == OrderStatus.Ordered, \"Order not in Ordered status\");\n        orders[orderId].orderPrice = _orderPrice;\n        orders[orderId].shipmentPrice = _shipmentPrice;\n        orders[orderId].courier = _courier;\n        orders[orderId].deliveryDate = _deliveryDate;\n        orders[orderId].grandTotal = _orderPrice + _shipmentPrice;\n        orders[orderId].status = OrderStatus.Priced;\n\n        emit PriceSent(orderId, _orderPrice, _shipmentPrice);\n    }\n\n    function pay(uint256 orderId) public payable onlyRetailer(orderId) {\n        require(orders[orderId].status == OrderStatus.Priced, \"Prices not set yet\");\n        require(msg.value == orders[orderId].grandTotal, \"Incorrect payment amount\");\n        orders[orderId].status = OrderStatus.Paid;\n    }\n\n    function sendInvoice(uint256 orderId, uint256 deliveryDate, string memory otherData) public onlyManufacturer {\n        require(orders[orderId].status == OrderStatus.Paid, \"Payment not completed\");\n        orders[orderId].deliveryDate = deliveryDate;\n        orders[orderId].otherData = otherData;\n\n        emit InvoiceSent(orderId, deliveryDate, otherData);\n    }\n\n    function markDelivered(uint256 orderId) public onlyCourier(orderId) {\n        require(orders[orderId].status == OrderStatus.Paid, \"Payment not completed\");\n        orders[orderId].status = OrderStatus.Delivered;\n\n        emit OrderDelivered(orderId);\n\n        // Payout\n        payable(manufacturer).transfer(orders[orderId].orderPrice);\n        payable(orders[orderId].courier).transfer(orders[orderId].shipmentPrice);\n\n        emit PaymentReleased(orderId, manufacturer, orders[orderId].orderPrice);\n        emit PaymentReleased(orderId, orders[orderId].courier, orders[orderId].shipmentPrice);\n    }\n\n    function cancelOrder(uint256 orderId, string memory reason) public {\n        Order storage order = orders[orderId];\n        require(\n            msg.sender == manufacturer || msg.sender == order.retailer,\n            \"Only Manufacturer or Retailer can cancel the order\"\n        );\n        require(\n            order.status == OrderStatus.Ordered || order.status == OrderStatus.Priced,\n            \"Order cannot be cancelled at this stage\"\n        );\n\n        // If payment was made, refund the retailer\n        if (order.status == OrderStatus.Paid) {\n            payable(order.retailer).transfer(order.grandTotal);\n        }\n\n        order.status = OrderStatus.Cancelled;\n\n        emit OrderCancelled(orderId, reason);\n    }\n}\n",
  "sourcePath": "C:\\Programos\\smartContractBasic\\contracts\\SupplyChain.sol",
  "compiler": {
    "name": "solc",
    "version": "0.8.19+commit.7dd6d404.Emscripten.clang"
  },
  "schemaVersion": "3.4.16",
  "updatedAt": "2024-12-10T17:38:10.772Z",
  "networkType": "ethereum",
  "devdoc": {
    "kind": "dev",
    "methods": {},
    "version": 1
  },
  "userdoc": {
    "kind": "user",
    "methods": {},
    "version": 1
  }
}